{
  "_format": "hh-sol-artifact-1",
  "contractName": "MySmartContract",
  "sourceName": "contracts/MySmartContract.sol",
  "abi": [
    {
      "anonymous": false,
      "inputs": [
        {
          "indexed": false,
          "internalType": "uint256",
          "name": "senderId",
          "type": "uint256"
        },
        {
          "indexed": false,
          "internalType": "uint256",
          "name": "receiverId",
          "type": "uint256"
        },
        {
          "indexed": false,
          "internalType": "uint256",
          "name": "amount",
          "type": "uint256"
        }
      ],
      "name": "TokensTransferred",
      "type": "event"
    },
    {
      "anonymous": false,
      "inputs": [
        {
          "indexed": false,
          "internalType": "uint256",
          "name": "verificationId",
          "type": "uint256"
        },
        {
          "indexed": false,
          "internalType": "uint256",
          "name": "verifierId",
          "type": "uint256"
        }
      ],
      "name": "VerificationApproved",
      "type": "event"
    },
    {
      "anonymous": false,
      "inputs": [
        {
          "indexed": false,
          "internalType": "uint256",
          "name": "contentId",
          "type": "uint256"
        }
      ],
      "name": "VerificationRequested",
      "type": "event"
    },
    {
      "inputs": [
        {
          "internalType": "uint256",
          "name": "verificationId",
          "type": "uint256"
        },
        {
          "internalType": "uint256",
          "name": "verifierId",
          "type": "uint256"
        }
      ],
      "name": "approveVerification",
      "outputs": [],
      "stateMutability": "nonpayable",
      "type": "function"
    },
    {
      "inputs": [
        {
          "internalType": "uint256",
          "name": "userId",
          "type": "uint256"
        }
      ],
      "name": "getTokenBalance",
      "outputs": [
        {
          "internalType": "uint256",
          "name": "",
          "type": "uint256"
        }
      ],
      "stateMutability": "view",
      "type": "function"
    },
    {
      "inputs": [
        {
          "internalType": "uint256",
          "name": "contentId",
          "type": "uint256"
        }
      ],
      "name": "requestVerification",
      "outputs": [],
      "stateMutability": "nonpayable",
      "type": "function"
    },
    {
      "inputs": [
        {
          "internalType": "uint256",
          "name": "",
          "type": "uint256"
        }
      ],
      "name": "tokenBalance",
      "outputs": [
        {
          "internalType": "uint256",
          "name": "",
          "type": "uint256"
        }
      ],
      "stateMutability": "view",
      "type": "function"
    },
    {
      "inputs": [
        {
          "internalType": "uint256",
          "name": "senderId",
          "type": "uint256"
        },
        {
          "internalType": "uint256",
          "name": "receiverId",
          "type": "uint256"
        },
        {
          "internalType": "uint256",
          "name": "amount",
          "type": "uint256"
        }
      ],
      "name": "transferTokens",
      "outputs": [],
      "stateMutability": "nonpayable",
      "type": "function"
    },
    {
      "inputs": [
        {
          "internalType": "uint256",
          "name": "",
          "type": "uint256"
        }
      ],
      "name": "verifiedContent",
      "outputs": [
        {
          "internalType": "bool",
          "name": "",
          "type": "bool"
        }
      ],
      "stateMutability": "view",
      "type": "function"
    }
  ],
  "bytecode": "0x608060405234801561001057600080fd5b5061065c806100206000396000f3fe608060405234801561001057600080fd5b50600436106100625760003560e01c8063015d15f8146100675780630c020f081461008357806349afc6e51461009f5780639105d748146100cf578063911cdec8146100ff578063ab2c4d011461011b575b600080fd5b610081600480360381019061007c9190610392565b61014b565b005b61009d600480360381019061009891906103d2565b6101b3565b005b6100b960048036038101906100b491906103d2565b610218565b6040516100c6919061040e565b60405180910390f35b6100e960048036038101906100e491906103d2565b610230565b6040516100f6919061040e565b60405180910390f35b61011960048036038101906101149190610429565b61024d565b005b610135600480360381019061013091906103d2565b610337565b6040516101429190610497565b60405180910390f35b600160008084815260200190815260200160002060006101000a81548160ff0219169083151502179055507f2f0e32112625d2c7309617b98da714c001d8a257603f9c978d530e73305b73b582826040516101a79291906104b2565b60405180910390a15050565b600080600083815260200190815260200160002060006101000a81548160ff0219169083151502179055507fdc3cf8a27e1b75f6a2451158326c9443e79524509e9f381814e6b58416c0796a8160405161020d919061040e565b60405180910390a150565b60016020528060005260406000206000915090505481565b600060016000838152602001908152602001600020549050919050565b80600160008581526020019081526020016000205410156102a3576040517f08c379a000000000000000000000000000000000000000000000000000000000815260040161029a90610538565b60405180910390fd5b806001600085815260200190815260200160002060008282546102c69190610587565b92505081905550806001600084815260200190815260200160002060008282546102f091906105bb565b925050819055507f2409dd29a879838381d38a2242e2a92a1582a26dc5317bb944cb257c1ee5490783838360405161032a939291906105ef565b60405180910390a1505050565b60006020528060005260406000206000915054906101000a900460ff1681565b600080fd5b6000819050919050565b61036f8161035c565b811461037a57600080fd5b50565b60008135905061038c81610366565b92915050565b600080604083850312156103a9576103a8610357565b5b60006103b78582860161037d565b92505060206103c88582860161037d565b9150509250929050565b6000602082840312156103e8576103e7610357565b5b60006103f68482850161037d565b91505092915050565b6104088161035c565b82525050565b600060208201905061042360008301846103ff565b92915050565b60008060006060848603121561044257610441610357565b5b60006104508682870161037d565b93505060206104618682870161037d565b92505060406104728682870161037d565b9150509250925092565b60008115159050919050565b6104918161047c565b82525050565b60006020820190506104ac6000830184610488565b92915050565b60006040820190506104c760008301856103ff565b6104d460208301846103ff565b9392505050565b600082825260208201905092915050565b7f496e73756666696369656e742062616c616e6365000000000000000000000000600082015250565b60006105226014836104db565b915061052d826104ec565b602082019050919050565b6000602082019050818103600083015261055181610515565b9050919050565b7f4e487b7100000000000000000000000000000000000000000000000000000000600052601160045260246000fd5b60006105928261035c565b915061059d8361035c565b92508282039050818111156105b5576105b4610558565b5b92915050565b60006105c68261035c565b91506105d18361035c565b92508282019050808211156105e9576105e8610558565b5b92915050565b600060608201905061060460008301866103ff565b61061160208301856103ff565b61061e60408301846103ff565b94935050505056fea26469706673582212209696cd58d76face3b806d8797c63bd706b68a0c83fbf723491cc815036ef3c8f64736f6c63430008120033",
  "linkReferences": {},
  "deployedLinkReferences": {}
}