{"contracts/MySmartContract.sol":{"MySmartContract":{"abi":[{"anonymous":false,"inputs":[{"indexed":false,"internalType":"uint256","name":"senderId","type":"uint256"},{"indexed":false,"internalType":"uint256","name":"receiverId","type":"uint256"},{"indexed":false,"internalType":"uint256","name":"amount","type":"uint256"}],"name":"TokensTransferred","type":"event"},{"anonymous":false,"inputs":[{"indexed":false,"internalType":"uint256","name":"verificationId","type":"uint256"},{"indexed":false,"internalType":"uint256","name":"verifierId","type":"uint256"}],"name":"VerificationApproved","type":"event"},{"anonymous":false,"inputs":[{"indexed":false,"internalType":"uint256","name":"contentId","type":"uint256"}],"name":"VerificationRequested","type":"event"},{"inputs":[{"internalType":"uint256","name":"verificationId","type":"uint256"},{"internalType":"uint256","name":"verifierId","type":"uint256"}],"name":"approveVerification","outputs":[],"stateMutability":"nonpayable","type":"function"},{"inputs":[{"internalType":"uint256","name":"userId","type":"uint256"}],"name":"getTokenBalance","outputs":[{"internalType":"uint256","name":"","type":"uint256"}],"stateMutability":"view","type":"function"},{"inputs":[{"internalType":"uint256","name":"contentId","type":"uint256"}],"name":"requestVerification","outputs":[],"stateMutability":"nonpayable","type":"function"},{"inputs":[{"internalType":"uint256","name":"","type":"uint256"}],"name":"tokenBalance","outputs":[{"internalType":"uint256","name":"","type":"uint256"}],"stateMutability":"view","type":"function"},{"inputs":[{"internalType":"uint256","name":"senderId","type":"uint256"},{"internalType":"uint256","name":"receiverId","type":"uint256"},{"internalType":"uint256","name":"amount","type":"uint256"}],"name":"transferTokens","outputs":[],"stateMutability":"nonpayable","type":"function"},{"inputs":[{"internalType":"uint256","name":"","type":"uint256"}],"name":"verifiedContent","outputs":[{"internalType":"bool","name":"","type":"bool"}],"stateMutability":"view","type":"function"}],"evm":{"bytecode":{"linkReferences":{},"object":"608060405234801561001057600080fd5b5061065c806100206000396000f3fe608060405234801561001057600080fd5b50600436106100625760003560e01c8063015d15f8146100675780630c020f081461008357806349afc6e51461009f5780639105d748146100cf578063911cdec8146100ff578063ab2c4d011461011b575b600080fd5b610081600480360381019061007c9190610392565b61014b565b005b61009d600480360381019061009891906103d2565b6101b3565b005b6100b960048036038101906100b491906103d2565b610218565b6040516100c6919061040e565b60405180910390f35b6100e960048036038101906100e491906103d2565b610230565b6040516100f6919061040e565b60405180910390f35b61011960048036038101906101149190610429565b61024d565b005b610135600480360381019061013091906103d2565b610337565b6040516101429190610497565b60405180910390f35b600160008084815260200190815260200160002060006101000a81548160ff0219169083151502179055507f2f0e32112625d2c7309617b98da714c001d8a257603f9c978d530e73305b73b582826040516101a79291906104b2565b60405180910390a15050565b600080600083815260200190815260200160002060006101000a81548160ff0219169083151502179055507fdc3cf8a27e1b75f6a2451158326c9443e79524509e9f381814e6b58416c0796a8160405161020d919061040e565b60405180910390a150565b60016020528060005260406000206000915090505481565b600060016000838152602001908152602001600020549050919050565b80600160008581526020019081526020016000205410156102a3576040517f08c379a000000000000000000000000000000000000000000000000000000000815260040161029a90610538565b60405180910390fd5b806001600085815260200190815260200160002060008282546102c69190610587565b92505081905550806001600084815260200190815260200160002060008282546102f091906105bb565b925050819055507f2409dd29a879838381d38a2242e2a92a1582a26dc5317bb944cb257c1ee5490783838360405161032a939291906105ef565b60405180910390a1505050565b60006020528060005260406000206000915054906101000a900460ff1681565b600080fd5b6000819050919050565b61036f8161035c565b811461037a57600080fd5b50565b60008135905061038c81610366565b92915050565b600080604083850312156103a9576103a8610357565b5b60006103b78582860161037d565b92505060206103c88582860161037d565b9150509250929050565b6000602082840312156103e8576103e7610357565b5b60006103f68482850161037d565b91505092915050565b6104088161035c565b82525050565b600060208201905061042360008301846103ff565b92915050565b60008060006060848603121561044257610441610357565b5b60006104508682870161037d565b93505060206104618682870161037d565b92505060406104728682870161037d565b9150509250925092565b60008115159050919050565b6104918161047c565b82525050565b60006020820190506104ac6000830184610488565b92915050565b60006040820190506104c760008301856103ff565b6104d460208301846103ff565b9392505050565b600082825260208201905092915050565b7f496e73756666696369656e742062616c616e6365000000000000000000000000600082015250565b60006105226014836104db565b915061052d826104ec565b602082019050919050565b6000602082019050818103600083015261055181610515565b9050919050565b7f4e487b7100000000000000000000000000000000000000000000000000000000600052601160045260246000fd5b60006105928261035c565b915061059d8361035c565b92508282039050818111156105b5576105b4610558565b5b92915050565b60006105c68261035c565b91506105d18361035c565b92508282019050808211156105e9576105e8610558565b5b92915050565b600060608201905061060460008301866103ff565b61061160208301856103ff565b61061e60408301846103ff565b94935050505056fea26469706673582212209696cd58d76face3b806d8797c63bd706b68a0c83fbf723491cc815036ef3c8f64736f6c63430008120033","opcodes":"PUSH1 0x80 PUSH1 0x40 MSTORE CALLVALUE DUP1 ISZERO PUSH2 0x10 JUMPI PUSH1 0x0 DUP1 REVERT JUMPDEST POP PUSH2 0x65C DUP1 PUSH2 0x20 PUSH1 0x0 CODECOPY PUSH1 0x0 RETURN INVALID PUSH1 0x80 PUSH1 0x40 MSTORE CALLVALUE DUP1 ISZERO PUSH2 0x10 JUMPI PUSH1 0x0 DUP1 REVERT JUMPDEST POP PUSH1 0x4 CALLDATASIZE LT PUSH2 0x62 JUMPI PUSH1 0x0 CALLDATALOAD PUSH1 0xE0 SHR DUP1 PUSH4 0x15D15F8 EQ PUSH2 0x67 JUMPI DUP1 PUSH4 0xC020F08 EQ PUSH2 0x83 JUMPI DUP1 PUSH4 0x49AFC6E5 EQ PUSH2 0x9F JUMPI DUP1 PUSH4 0x9105D748 EQ PUSH2 0xCF JUMPI DUP1 PUSH4 0x911CDEC8 EQ PUSH2 0xFF JUMPI DUP1 PUSH4 0xAB2C4D01 EQ PUSH2 0x11B JUMPI JUMPDEST PUSH1 0x0 DUP1 REVERT JUMPDEST PUSH2 0x81 PUSH1 0x4 DUP1 CALLDATASIZE SUB DUP2 ADD SWAP1 PUSH2 0x7C SWAP2 SWAP1 PUSH2 0x392 JUMP JUMPDEST PUSH2 0x14B JUMP JUMPDEST STOP JUMPDEST PUSH2 0x9D PUSH1 0x4 DUP1 CALLDATASIZE SUB DUP2 ADD SWAP1 PUSH2 0x98 SWAP2 SWAP1 PUSH2 0x3D2 JUMP JUMPDEST PUSH2 0x1B3 JUMP JUMPDEST STOP JUMPDEST PUSH2 0xB9 PUSH1 0x4 DUP1 CALLDATASIZE SUB DUP2 ADD SWAP1 PUSH2 0xB4 SWAP2 SWAP1 PUSH2 0x3D2 JUMP JUMPDEST PUSH2 0x218 JUMP JUMPDEST PUSH1 0x40 MLOAD PUSH2 0xC6 SWAP2 SWAP1 PUSH2 0x40E JUMP JUMPDEST PUSH1 0x40 MLOAD DUP1 SWAP2 SUB SWAP1 RETURN JUMPDEST PUSH2 0xE9 PUSH1 0x4 DUP1 CALLDATASIZE SUB DUP2 ADD SWAP1 PUSH2 0xE4 SWAP2 SWAP1 PUSH2 0x3D2 JUMP JUMPDEST PUSH2 0x230 JUMP JUMPDEST PUSH1 0x40 MLOAD PUSH2 0xF6 SWAP2 SWAP1 PUSH2 0x40E JUMP JUMPDEST PUSH1 0x40 MLOAD DUP1 SWAP2 SUB SWAP1 RETURN JUMPDEST PUSH2 0x119 PUSH1 0x4 DUP1 CALLDATASIZE SUB DUP2 ADD SWAP1 PUSH2 0x114 SWAP2 SWAP1 PUSH2 0x429 JUMP JUMPDEST PUSH2 0x24D JUMP JUMPDEST STOP JUMPDEST PUSH2 0x135 PUSH1 0x4 DUP1 CALLDATASIZE SUB DUP2 ADD SWAP1 PUSH2 0x130 SWAP2 SWAP1 PUSH2 0x3D2 JUMP JUMPDEST PUSH2 0x337 JUMP JUMPDEST PUSH1 0x40 MLOAD PUSH2 0x142 SWAP2 SWAP1 PUSH2 0x497 JUMP JUMPDEST PUSH1 0x40 MLOAD DUP1 SWAP2 SUB SWAP1 RETURN JUMPDEST PUSH1 0x1 PUSH1 0x0 DUP1 DUP5 DUP2 MSTORE PUSH1 0x20 ADD SWAP1 DUP2 MSTORE PUSH1 0x20 ADD PUSH1 0x0 KECCAK256 PUSH1 0x0 PUSH2 0x100 EXP DUP2 SLOAD DUP2 PUSH1 0xFF MUL NOT AND SWAP1 DUP4 ISZERO ISZERO MUL OR SWAP1 SSTORE POP PUSH32 0x2F0E32112625D2C7309617B98DA714C001D8A257603F9C978D530E73305B73B5 DUP3 DUP3 PUSH1 0x40 MLOAD PUSH2 0x1A7 SWAP3 SWAP2 SWAP1 PUSH2 0x4B2 JUMP JUMPDEST PUSH1 0x40 MLOAD DUP1 SWAP2 SUB SWAP1 LOG1 POP POP JUMP JUMPDEST PUSH1 0x0 DUP1 PUSH1 0x0 DUP4 DUP2 MSTORE PUSH1 0x20 ADD SWAP1 DUP2 MSTORE PUSH1 0x20 ADD PUSH1 0x0 KECCAK256 PUSH1 0x0 PUSH2 0x100 EXP DUP2 SLOAD DUP2 PUSH1 0xFF MUL NOT AND SWAP1 DUP4 ISZERO ISZERO MUL OR SWAP1 SSTORE POP PUSH32 0xDC3CF8A27E1B75F6A2451158326C9443E79524509E9F381814E6B58416C0796A DUP2 PUSH1 0x40 MLOAD PUSH2 0x20D SWAP2 SWAP1 PUSH2 0x40E JUMP JUMPDEST PUSH1 0x40 MLOAD DUP1 SWAP2 SUB SWAP1 LOG1 POP JUMP JUMPDEST PUSH1 0x1 PUSH1 0x20 MSTORE DUP1 PUSH1 0x0 MSTORE PUSH1 0x40 PUSH1 0x0 KECCAK256 PUSH1 0x0 SWAP2 POP SWAP1 POP SLOAD DUP2 JUMP JUMPDEST PUSH1 0x0 PUSH1 0x1 PUSH1 0x0 DUP4 DUP2 MSTORE PUSH1 0x20 ADD SWAP1 DUP2 MSTORE PUSH1 0x20 ADD PUSH1 0x0 KECCAK256 SLOAD SWAP1 POP SWAP2 SWAP1 POP JUMP JUMPDEST DUP1 PUSH1 0x1 PUSH1 0x0 DUP6 DUP2 MSTORE PUSH1 0x20 ADD SWAP1 DUP2 MSTORE PUSH1 0x20 ADD PUSH1 0x0 KECCAK256 SLOAD LT ISZERO PUSH2 0x2A3 JUMPI PUSH1 0x40 MLOAD PUSH32 0x8C379A000000000000000000000000000000000000000000000000000000000 DUP2 MSTORE PUSH1 0x4 ADD PUSH2 0x29A SWAP1 PUSH2 0x538 JUMP JUMPDEST PUSH1 0x40 MLOAD DUP1 SWAP2 SUB SWAP1 REVERT JUMPDEST DUP1 PUSH1 0x1 PUSH1 0x0 DUP6 DUP2 MSTORE PUSH1 0x20 ADD SWAP1 DUP2 MSTORE PUSH1 0x20 ADD PUSH1 0x0 KECCAK256 PUSH1 0x0 DUP3 DUP3 SLOAD PUSH2 0x2C6 SWAP2 SWAP1 PUSH2 0x587 JUMP JUMPDEST SWAP3 POP POP DUP2 SWAP1 SSTORE POP DUP1 PUSH1 0x1 PUSH1 0x0 DUP5 DUP2 MSTORE PUSH1 0x20 ADD SWAP1 DUP2 MSTORE PUSH1 0x20 ADD PUSH1 0x0 KECCAK256 PUSH1 0x0 DUP3 DUP3 SLOAD PUSH2 0x2F0 SWAP2 SWAP1 PUSH2 0x5BB JUMP JUMPDEST SWAP3 POP POP DUP2 SWAP1 SSTORE POP PUSH32 0x2409DD29A879838381D38A2242E2A92A1582A26DC5317BB944CB257C1EE54907 DUP4 DUP4 DUP4 PUSH1 0x40 MLOAD PUSH2 0x32A SWAP4 SWAP3 SWAP2 SWAP1 PUSH2 0x5EF JUMP JUMPDEST PUSH1 0x40 MLOAD DUP1 SWAP2 SUB SWAP1 LOG1 POP POP POP JUMP JUMPDEST PUSH1 0x0 PUSH1 0x20 MSTORE DUP1 PUSH1 0x0 MSTORE PUSH1 0x40 PUSH1 0x0 KECCAK256 PUSH1 0x0 SWAP2 POP SLOAD SWAP1 PUSH2 0x100 EXP SWAP1 DIV PUSH1 0xFF AND DUP2 JUMP JUMPDEST PUSH1 0x0 DUP1 REVERT JUMPDEST PUSH1 0x0 DUP2 SWAP1 POP SWAP2 SWAP1 POP JUMP JUMPDEST PUSH2 0x36F DUP2 PUSH2 0x35C JUMP JUMPDEST DUP2 EQ PUSH2 0x37A JUMPI PUSH1 0x0 DUP1 REVERT JUMPDEST POP JUMP JUMPDEST PUSH1 0x0 DUP2 CALLDATALOAD SWAP1 POP PUSH2 0x38C DUP2 PUSH2 0x366 JUMP JUMPDEST SWAP3 SWAP2 POP POP JUMP JUMPDEST PUSH1 0x0 DUP1 PUSH1 0x40 DUP4 DUP6 SUB SLT ISZERO PUSH2 0x3A9 JUMPI PUSH2 0x3A8 PUSH2 0x357 JUMP JUMPDEST JUMPDEST PUSH1 0x0 PUSH2 0x3B7 DUP6 DUP3 DUP7 ADD PUSH2 0x37D JUMP JUMPDEST SWAP3 POP POP PUSH1 0x20 PUSH2 0x3C8 DUP6 DUP3 DUP7 ADD PUSH2 0x37D JUMP JUMPDEST SWAP2 POP POP SWAP3 POP SWAP3 SWAP1 POP JUMP JUMPDEST PUSH1 0x0 PUSH1 0x20 DUP3 DUP5 SUB SLT ISZERO PUSH2 0x3E8 JUMPI PUSH2 0x3E7 PUSH2 0x357 JUMP JUMPDEST JUMPDEST PUSH1 0x0 PUSH2 0x3F6 DUP5 DUP3 DUP6 ADD PUSH2 0x37D JUMP JUMPDEST SWAP2 POP POP SWAP3 SWAP2 POP POP JUMP JUMPDEST PUSH2 0x408 DUP2 PUSH2 0x35C JUMP JUMPDEST DUP3 MSTORE POP POP JUMP JUMPDEST PUSH1 0x0 PUSH1 0x20 DUP3 ADD SWAP1 POP PUSH2 0x423 PUSH1 0x0 DUP4 ADD DUP5 PUSH2 0x3FF JUMP JUMPDEST SWAP3 SWAP2 POP POP JUMP JUMPDEST PUSH1 0x0 DUP1 PUSH1 0x0 PUSH1 0x60 DUP5 DUP7 SUB SLT ISZERO PUSH2 0x442 JUMPI PUSH2 0x441 PUSH2 0x357 JUMP JUMPDEST JUMPDEST PUSH1 0x0 PUSH2 0x450 DUP7 DUP3 DUP8 ADD PUSH2 0x37D JUMP JUMPDEST SWAP4 POP POP PUSH1 0x20 PUSH2 0x461 DUP7 DUP3 DUP8 ADD PUSH2 0x37D JUMP JUMPDEST SWAP3 POP POP PUSH1 0x40 PUSH2 0x472 DUP7 DUP3 DUP8 ADD PUSH2 0x37D JUMP JUMPDEST SWAP2 POP POP SWAP3 POP SWAP3 POP SWAP3 JUMP JUMPDEST PUSH1 0x0 DUP2 ISZERO ISZERO SWAP1 POP SWAP2 SWAP1 POP JUMP JUMPDEST PUSH2 0x491 DUP2 PUSH2 0x47C JUMP JUMPDEST DUP3 MSTORE POP POP JUMP JUMPDEST PUSH1 0x0 PUSH1 0x20 DUP3 ADD SWAP1 POP PUSH2 0x4AC PUSH1 0x0 DUP4 ADD DUP5 PUSH2 0x488 JUMP JUMPDEST SWAP3 SWAP2 POP POP JUMP JUMPDEST PUSH1 0x0 PUSH1 0x40 DUP3 ADD SWAP1 POP PUSH2 0x4C7 PUSH1 0x0 DUP4 ADD DUP6 PUSH2 0x3FF JUMP JUMPDEST PUSH2 0x4D4 PUSH1 0x20 DUP4 ADD DUP5 PUSH2 0x3FF JUMP JUMPDEST SWAP4 SWAP3 POP POP POP JUMP JUMPDEST PUSH1 0x0 DUP3 DUP3 MSTORE PUSH1 0x20 DUP3 ADD SWAP1 POP SWAP3 SWAP2 POP POP JUMP JUMPDEST PUSH32 0x496E73756666696369656E742062616C616E6365000000000000000000000000 PUSH1 0x0 DUP3 ADD MSTORE POP JUMP JUMPDEST PUSH1 0x0 PUSH2 0x522 PUSH1 0x14 DUP4 PUSH2 0x4DB JUMP JUMPDEST SWAP2 POP PUSH2 0x52D DUP3 PUSH2 0x4EC JUMP JUMPDEST PUSH1 0x20 DUP3 ADD SWAP1 POP SWAP2 SWAP1 POP JUMP JUMPDEST PUSH1 0x0 PUSH1 0x20 DUP3 ADD SWAP1 POP DUP2 DUP2 SUB PUSH1 0x0 DUP4 ADD MSTORE PUSH2 0x551 DUP2 PUSH2 0x515 JUMP JUMPDEST SWAP1 POP SWAP2 SWAP1 POP JUMP JUMPDEST PUSH32 0x4E487B7100000000000000000000000000000000000000000000000000000000 PUSH1 0x0 MSTORE PUSH1 0x11 PUSH1 0x4 MSTORE PUSH1 0x24 PUSH1 0x0 REVERT JUMPDEST PUSH1 0x0 PUSH2 0x592 DUP3 PUSH2 0x35C JUMP JUMPDEST SWAP2 POP PUSH2 0x59D DUP4 PUSH2 0x35C JUMP JUMPDEST SWAP3 POP DUP3 DUP3 SUB SWAP1 POP DUP2 DUP2 GT ISZERO PUSH2 0x5B5 JUMPI PUSH2 0x5B4 PUSH2 0x558 JUMP JUMPDEST JUMPDEST SWAP3 SWAP2 POP POP JUMP JUMPDEST PUSH1 0x0 PUSH2 0x5C6 DUP3 PUSH2 0x35C JUMP JUMPDEST SWAP2 POP PUSH2 0x5D1 DUP4 PUSH2 0x35C JUMP JUMPDEST SWAP3 POP DUP3 DUP3 ADD SWAP1 POP DUP1 DUP3 GT ISZERO PUSH2 0x5E9 JUMPI PUSH2 0x5E8 PUSH2 0x558 JUMP JUMPDEST JUMPDEST SWAP3 SWAP2 POP POP JUMP JUMPDEST PUSH1 0x0 PUSH1 0x60 DUP3 ADD SWAP1 POP PUSH2 0x604 PUSH1 0x0 DUP4 ADD DUP7 PUSH2 0x3FF JUMP JUMPDEST PUSH2 0x611 PUSH1 0x20 DUP4 ADD DUP6 PUSH2 0x3FF JUMP JUMPDEST PUSH2 0x61E PUSH1 0x40 DUP4 ADD DUP5 PUSH2 0x3FF JUMP JUMPDEST SWAP5 SWAP4 POP POP POP POP JUMP INVALID LOG2 PUSH5 0x6970667358 0x22 SLT KECCAK256 SWAP7 SWAP7 0xCD PC 0xD7 PUSH16 0xACE3B806D8797C63BD706B68A0C83FBF PUSH19 0x3491CC815036EF3C8F64736F6C634300081200 CALLER "},"methodIdentifiers":{"approveVerification(uint256,uint256)":"015d15f8","getTokenBalance(uint256)":"9105d748","requestVerification(uint256)":"0c020f08","tokenBalance(uint256)":"49afc6e5","transferTokens(uint256,uint256,uint256)":"911cdec8","verifiedContent(uint256)":"ab2c4d01"}}}}}