{"contracts/TestContract.sol":{"TestContract":{"abi":[{"inputs":[],"name":"greet","outputs":[{"internalType":"string","name":"","type":"string"}],"stateMutability":"pure","type":"function"}],"evm":{"bytecode":{"linkReferences":{},"object":"608060405234801561001057600080fd5b50610173806100206000396000f3fe608060405234801561001057600080fd5b506004361061002b5760003560e01c8063cfae321714610030575b600080fd5b61003861004e565b604051610045919061011b565b60405180910390f35b60606040518060400160405280600f81526020017f48656c6c6f2c2048617264686174210000000000000000000000000000000000815250905090565b600081519050919050565b600082825260208201905092915050565b60005b838110156100c55780820151818401526020810190506100aa565b60008484015250505050565b6000601f19601f8301169050919050565b60006100ed8261008b565b6100f78185610096565b93506101078185602086016100a7565b610110816100d1565b840191505092915050565b6000602082019050818103600083015261013581846100e2565b90509291505056fea2646970667358221220b599dd0e8e973d734d933bbabd4f7a800ad40196866958b97e8abe443c229f7864736f6c63430008120033","opcodes":"PUSH1 0x80 PUSH1 0x40 MSTORE CALLVALUE DUP1 ISZERO PUSH2 0x10 JUMPI PUSH1 0x0 DUP1 REVERT JUMPDEST POP PUSH2 0x173 DUP1 PUSH2 0x20 PUSH1 0x0 CODECOPY PUSH1 0x0 RETURN INVALID PUSH1 0x80 PUSH1 0x40 MSTORE CALLVALUE DUP1 ISZERO PUSH2 0x10 JUMPI PUSH1 0x0 DUP1 REVERT JUMPDEST POP PUSH1 0x4 CALLDATASIZE LT PUSH2 0x2B JUMPI PUSH1 0x0 CALLDATALOAD PUSH1 0xE0 SHR DUP1 PUSH4 0xCFAE3217 EQ PUSH2 0x30 JUMPI JUMPDEST PUSH1 0x0 DUP1 REVERT JUMPDEST PUSH2 0x38 PUSH2 0x4E JUMP JUMPDEST PUSH1 0x40 MLOAD PUSH2 0x45 SWAP2 SWAP1 PUSH2 0x11B JUMP JUMPDEST PUSH1 0x40 MLOAD DUP1 SWAP2 SUB SWAP1 RETURN JUMPDEST PUSH1 0x60 PUSH1 0x40 MLOAD DUP1 PUSH1 0x40 ADD PUSH1 0x40 MSTORE DUP1 PUSH1 0xF DUP2 MSTORE PUSH1 0x20 ADD PUSH32 0x48656C6C6F2C2048617264686174210000000000000000000000000000000000 DUP2 MSTORE POP SWAP1 POP SWAP1 JUMP JUMPDEST PUSH1 0x0 DUP2 MLOAD SWAP1 POP SWAP2 SWAP1 POP JUMP JUMPDEST PUSH1 0x0 DUP3 DUP3 MSTORE PUSH1 0x20 DUP3 ADD SWAP1 POP SWAP3 SWAP2 POP POP JUMP JUMPDEST PUSH1 0x0 JUMPDEST DUP4 DUP2 LT ISZERO PUSH2 0xC5 JUMPI DUP1 DUP3 ADD MLOAD DUP2 DUP5 ADD MSTORE PUSH1 0x20 DUP2 ADD SWAP1 POP PUSH2 0xAA JUMP JUMPDEST PUSH1 0x0 DUP5 DUP5 ADD MSTORE POP POP POP POP JUMP JUMPDEST PUSH1 0x0 PUSH1 0x1F NOT PUSH1 0x1F DUP4 ADD AND SWAP1 POP SWAP2 SWAP1 POP JUMP JUMPDEST PUSH1 0x0 PUSH2 0xED DUP3 PUSH2 0x8B JUMP JUMPDEST PUSH2 0xF7 DUP2 DUP6 PUSH2 0x96 JUMP JUMPDEST SWAP4 POP PUSH2 0x107 DUP2 DUP6 PUSH1 0x20 DUP7 ADD PUSH2 0xA7 JUMP JUMPDEST PUSH2 0x110 DUP2 PUSH2 0xD1 JUMP JUMPDEST DUP5 ADD SWAP2 POP POP SWAP3 SWAP2 POP POP JUMP JUMPDEST PUSH1 0x0 PUSH1 0x20 DUP3 ADD SWAP1 POP DUP2 DUP2 SUB PUSH1 0x0 DUP4 ADD MSTORE PUSH2 0x135 DUP2 DUP5 PUSH2 0xE2 JUMP JUMPDEST SWAP1 POP SWAP3 SWAP2 POP POP JUMP INVALID LOG2 PUSH5 0x6970667358 0x22 SLT KECCAK256 0xB5 SWAP10 0xDD 0xE DUP15 SWAP8 RETURNDATASIZE PUSH20 0x4D933BBABD4F7A800AD40196866958B97E8ABE44 EXTCODECOPY 0x22 SWAP16 PUSH25 0x64736F6C634300081200330000000000000000000000000000 "},"methodIdentifiers":{"greet()":"cfae3217"}}}}}